{
  "_format": "hh-sol-artifact-1",
  "contractName": "VotingSystem",
  "sourceName": "contracts/smart_contract.sol",
  "abi": [
    {
      "inputs": [],
      "stateMutability": "nonpayable",
      "type": "constructor"
    },
    {
      "inputs": [
        {
          "internalType": "uint256",
          "name": "startTime",
          "type": "uint256"
        },
        {
          "internalType": "uint256",
          "name": "currentTime",
          "type": "uint256"
        },
        {
          "internalType": "uint256",
          "name": "timeRemaining",
          "type": "uint256"
        }
      ],
      "name": "VotingNotStarted",
      "type": "error"
    },
    {
      "anonymous": false,
      "inputs": [
        {
          "indexed": true,
          "internalType": "address",
          "name": "voter",
          "type": "address"
        },
        {
          "indexed": true,
          "internalType": "uint256",
          "name": "votingId",
          "type": "uint256"
        },
        {
          "indexed": false,
          "internalType": "uint256",
          "name": "propositionIndex",
          "type": "uint256"
        }
      ],
      "name": "VoteCast",
      "type": "event"
    },
    {
      "anonymous": false,
      "inputs": [
        {
          "indexed": true,
          "internalType": "uint256",
          "name": "votingId",
          "type": "uint256"
        },
        {
          "indexed": false,
          "internalType": "string",
          "name": "title",
          "type": "string"
        },
        {
          "indexed": false,
          "internalType": "enum VotingType",
          "name": "votingType",
          "type": "uint8"
        }
      ],
      "name": "VotingCreated",
      "type": "event"
    },
    {
      "inputs": [
        {
          "internalType": "address",
          "name": "_admin",
          "type": "address"
        }
      ],
      "name": "addAdmin",
      "outputs": [],
      "stateMutability": "nonpayable",
      "type": "function"
    },
    {
      "inputs": [
        {
          "internalType": "address",
          "name": "_voter",
          "type": "address"
        }
      ],
      "name": "addVoter",
      "outputs": [],
      "stateMutability": "nonpayable",
      "type": "function"
    },
    {
      "inputs": [
        {
          "internalType": "address",
          "name": "",
          "type": "address"
        }
      ],
      "name": "admins",
      "outputs": [
        {
          "internalType": "bool",
          "name": "",
          "type": "bool"
        }
      ],
      "stateMutability": "view",
      "type": "function"
    },
    {
      "inputs": [],
      "name": "chairman",
      "outputs": [
        {
          "internalType": "address",
          "name": "",
          "type": "address"
        }
      ],
      "stateMutability": "view",
      "type": "function"
    },
    {
      "inputs": [
        {
          "internalType": "string",
          "name": "_title",
          "type": "string"
        },
        {
          "internalType": "uint256",
          "name": "_startTime",
          "type": "uint256"
        },
        {
          "internalType": "uint256",
          "name": "_endTime",
          "type": "uint256"
        },
        {
          "internalType": "enum VotingType",
          "name": "_votingType",
          "type": "uint8"
        },
        {
          "internalType": "bytes32[]",
          "name": "_propositions",
          "type": "bytes32[]"
        }
      ],
      "name": "createVoting",
      "outputs": [],
      "stateMutability": "nonpayable",
      "type": "function"
    },
    {
      "inputs": [
        {
          "internalType": "uint256",
          "name": "page",
          "type": "uint256"
        },
        {
          "internalType": "uint256",
          "name": "perPage",
          "type": "uint256"
        }
      ],
      "name": "getActiveVotings",
      "outputs": [
        {
          "components": [
            {
              "internalType": "uint256",
              "name": "id",
              "type": "uint256"
            },
            {
              "internalType": "string",
              "name": "title",
              "type": "string"
            },
            {
              "internalType": "uint256",
              "name": "startTime",
              "type": "uint256"
            },
            {
              "internalType": "uint256",
              "name": "endTime",
              "type": "uint256"
            },
            {
              "internalType": "bytes32[]",
              "name": "propositions",
              "type": "bytes32[]"
            },
            {
              "internalType": "enum VotingType",
              "name": "votingType",
              "type": "uint8"
            }
          ],
          "internalType": "struct VotingInfo[]",
          "name": "votingsInfo",
          "type": "tuple[]"
        },
        {
          "internalType": "uint256",
          "name": "totalActive",
          "type": "uint256"
        }
      ],
      "stateMutability": "view",
      "type": "function"
    },
    {
      "inputs": [
        {
          "internalType": "uint256",
          "name": "page",
          "type": "uint256"
        },
        {
          "internalType": "uint256",
          "name": "perPage",
          "type": "uint256"
        }
      ],
      "name": "getCompletedVotings",
      "outputs": [
        {
          "components": [
            {
              "internalType": "uint256",
              "name": "id",
              "type": "uint256"
            },
            {
              "internalType": "string",
              "name": "title",
              "type": "string"
            },
            {
              "internalType": "uint256",
              "name": "startTime",
              "type": "uint256"
            },
            {
              "internalType": "uint256",
              "name": "endTime",
              "type": "uint256"
            },
            {
              "internalType": "bytes32[]",
              "name": "propositions",
              "type": "bytes32[]"
            },
            {
              "internalType": "enum VotingType",
              "name": "votingType",
              "type": "uint8"
            }
          ],
          "internalType": "struct VotingInfo[]",
          "name": "votingsInfo",
          "type": "tuple[]"
        },
        {
          "internalType": "uint256",
          "name": "totalCompleted",
          "type": "uint256"
        }
      ],
      "stateMutability": "view",
      "type": "function"
    },
    {
      "inputs": [
        {
          "internalType": "uint256",
          "name": "page",
          "type": "uint256"
        },
        {
          "internalType": "uint256",
          "name": "perPage",
          "type": "uint256"
        }
      ],
      "name": "getIncomingVotings",
      "outputs": [
        {
          "components": [
            {
              "internalType": "uint256",
              "name": "id",
              "type": "uint256"
            },
            {
              "internalType": "string",
              "name": "title",
              "type": "string"
            },
            {
              "internalType": "uint256",
              "name": "startTime",
              "type": "uint256"
            },
            {
              "internalType": "uint256",
              "name": "endTime",
              "type": "uint256"
            },
            {
              "internalType": "bytes32[]",
              "name": "propositions",
              "type": "bytes32[]"
            },
            {
              "internalType": "enum VotingType",
              "name": "votingType",
              "type": "uint8"
            }
          ],
          "internalType": "struct VotingInfo[]",
          "name": "votingsInfo",
          "type": "tuple[]"
        },
        {
          "internalType": "uint256",
          "name": "totalIncoming",
          "type": "uint256"
        }
      ],
      "stateMutability": "view",
      "type": "function"
    },
    {
      "inputs": [
        {
          "internalType": "uint256",
          "name": "votingId",
          "type": "uint256"
        }
      ],
      "name": "getPropositions",
      "outputs": [
        {
          "internalType": "bytes32[]",
          "name": "",
          "type": "bytes32[]"
        }
      ],
      "stateMutability": "view",
      "type": "function"
    },
    {
      "inputs": [
        {
          "internalType": "uint256",
          "name": "id",
          "type": "uint256"
        }
      ],
      "name": "getVoting",
      "outputs": [
        {
          "components": [
            {
              "internalType": "uint256",
              "name": "id",
              "type": "uint256"
            },
            {
              "internalType": "string",
              "name": "title",
              "type": "string"
            },
            {
              "internalType": "uint256",
              "name": "startTime",
              "type": "uint256"
            },
            {
              "internalType": "uint256",
              "name": "endTime",
              "type": "uint256"
            },
            {
              "internalType": "bytes32[]",
              "name": "propositions",
              "type": "bytes32[]"
            },
            {
              "internalType": "enum VotingType",
              "name": "votingType",
              "type": "uint8"
            }
          ],
          "internalType": "struct VotingInfo",
          "name": "",
          "type": "tuple"
        }
      ],
      "stateMutability": "view",
      "type": "function"
    },
    {
      "inputs": [
        {
          "internalType": "uint256[]",
          "name": "ids",
          "type": "uint256[]"
        }
      ],
      "name": "getVotingBatch",
      "outputs": [
        {
          "internalType": "string[]",
          "name": "titles",
          "type": "string[]"
        },
        {
          "internalType": "bytes32[][]",
          "name": "cids",
          "type": "bytes32[][]"
        }
      ],
      "stateMutability": "view",
      "type": "function"
    },
    {
      "inputs": [
        {
          "internalType": "uint256",
          "name": "_votingId",
          "type": "uint256"
        }
      ],
      "name": "getVotingStats",
      "outputs": [
        {
          "internalType": "uint256",
          "name": "totalVoters",
          "type": "uint256"
        },
        {
          "internalType": "uint256",
          "name": "votesCast",
          "type": "uint256"
        },
        {
          "internalType": "uint256[]",
          "name": "propositionVotes",
          "type": "uint256[]"
        }
      ],
      "stateMutability": "view",
      "type": "function"
    },
    {
      "inputs": [
        {
          "internalType": "uint256",
          "name": "_votingId",
          "type": "uint256"
        }
      ],
      "name": "getVotingStatus",
      "outputs": [
        {
          "internalType": "string",
          "name": "",
          "type": "string"
        }
      ],
      "stateMutability": "view",
      "type": "function"
    },
    {
      "inputs": [
        {
          "internalType": "address",
          "name": "_admin",
          "type": "address"
        }
      ],
      "name": "removeAdmin",
      "outputs": [],
      "stateMutability": "nonpayable",
      "type": "function"
    },
    {
      "inputs": [
        {
          "internalType": "address",
          "name": "_voter",
          "type": "address"
        }
      ],
      "name": "removeVoter",
      "outputs": [],
      "stateMutability": "nonpayable",
      "type": "function"
    },
    {
      "inputs": [
        {
          "internalType": "uint256",
          "name": "_votingId",
          "type": "uint256"
        },
        {
          "internalType": "uint256",
          "name": "_propositionIndex",
          "type": "uint256"
        }
      ],
      "name": "vote",
      "outputs": [],
      "stateMutability": "nonpayable",
      "type": "function"
    },
    {
      "inputs": [
        {
          "internalType": "address",
          "name": "",
          "type": "address"
        }
      ],
      "name": "voters",
      "outputs": [
        {
          "internalType": "bool",
          "name": "",
          "type": "bool"
        }
      ],
      "stateMutability": "view",
      "type": "function"
    },
    {
      "inputs": [],
      "name": "votingCount",
      "outputs": [
        {
          "internalType": "uint256",
          "name": "",
          "type": "uint256"
        }
      ],
      "stateMutability": "view",
      "type": "function"
    },
    {
      "inputs": [
        {
          "internalType": "uint256",
          "name": "",
          "type": "uint256"
        }
      ],
      "name": "votings",
      "outputs": [
        {
          "internalType": "uint256",
          "name": "id",
          "type": "uint256"
        },
        {
          "internalType": "string",
          "name": "title",
          "type": "string"
        },
        {
          "internalType": "uint256",
          "name": "startTime",
          "type": "uint256"
        },
        {
          "internalType": "uint256",
          "name": "endTime",
          "type": "uint256"
        },
        {
          "internalType": "enum VotingType",
          "name": "votingType",
          "type": "uint8"
        },
        {
          "internalType": "bool",
          "name": "exists",
          "type": "bool"
        }
      ],
      "stateMutability": "view",
      "type": "function"
    }
  ],
  "bytecode": "0x6080604052348015600f57600080fd5b50336000806101000a81548173ffffffffffffffffffffffffffffffffffffffff021916908373ffffffffffffffffffffffffffffffffffffffff16021790555060018060008060009054906101000a900473ffffffffffffffffffffffffffffffffffffffff1673ffffffffffffffffffffffffffffffffffffffff1673ffffffffffffffffffffffffffffffffffffffff16815260200190815260200160002060006101000a81548160ff02191690831515021790555061437e806100d76000396000f3fe608060405234801561001057600080fd5b50600436106101215760003560e01c806387f7b975116100ad578063aad1639311610071578063aad163931461036c578063b384abef1461039d578063b424ab84146103b9578063e58d4527146103d7578063f4ab9adf1461040957610121565b806387f7b975146102895780638f633994146102a75780639c8cd71f146102d7578063a3ec138d14610307578063a598d03c1461033757610121565b80636569a70e116100f45780636569a70e146101d3578063704802751461020457806383c552fe1461022057806385ed986c1461025157806386c1ff681461026d57610121565b80631785f53c146101265780633afc728214610142578063429b62e514610172578063595a5d38146101a2575b600080fd5b610140600480360381019061013b9190612a76565b610425565b005b61015c60048036038101906101579190612ad9565b61050e565b6040516101699190612d74565b60405180910390f35b61018c60048036038101906101879190612a76565b6106c6565b6040516101999190612db1565b60405180910390f35b6101bc60048036038101906101b79190612dcc565b6106e6565b6040516101ca929190612f6d565b60405180910390f35b6101ed60048036038101906101e89190613002565b610c85565b6040516101fb9291906131d3565b60405180910390f35b61021e60048036038101906102199190612a76565b610e67565b005b61023a60048036038101906102359190612dcc565b610f4f565b604051610248929190612f6d565b60405180910390f35b61026b6004803603810190610266919061344e565b611511565b005b61028760048036038101906102829190612a76565b6117c3565b005b610291611900565b60405161029e9190613510565b60405180910390f35b6102c160048036038101906102bc9190612ad9565b611924565b6040516102ce9190613575565b60405180910390f35b6102f160048036038101906102ec9190612ad9565b611a63565b6040516102fe9190613606565b60405180910390f35b610321600480360381019061031c9190612a76565b611b8a565b60405161032e9190612db1565b60405180910390f35b610351600480360381019061034c9190612ad9565b611baa565b60405161036396959493929190613637565b60405180910390f35b61038660048036038101906103819190612dcc565b611c88565b604051610394929190612f6d565b60405180910390f35b6103b760048036038101906103b29190612dcc565b612227565b005b6103c16125da565b6040516103ce919061369f565b60405180910390f35b6103f160048036038101906103ec9190612ad9565b6125e0565b60405161040093929190613769565b60405180910390f35b610423600480360381019061041e9190612a76565b6127f2565b005b60008054906101000a900473ffffffffffffffffffffffffffffffffffffffff1673ffffffffffffffffffffffffffffffffffffffff163373ffffffffffffffffffffffffffffffffffffffff16146104b3576040517f08c379a00000000000000000000000000000000000000000000000000000000081526004016104aa906137f3565b60405180910390fd5b6000600160008373ffffffffffffffffffffffffffffffffffffffff1673ffffffffffffffffffffffffffffffffffffffff16815260200190815260200160002060006101000a81548160ff02191690831515021790555050565b6105166129bc565b60006005600084815260200190815260200160002090508060080160009054906101000a900460ff1661057e576040517f08c379a00000000000000000000000000000000000000000000000000000000081526004016105759061385f565b60405180910390fd5b60006040518060c00160405280836000015481526020018360010180546105a4906138ae565b80601f01602080910402602001604051908101604052809291908181526020018280546105d0906138ae565b801561061d5780601f106105f25761010080835404028352916020019161061d565b820191906000526020600020905b81548152906001019060200180831161060057829003601f168201915b5050505050815260200183600201548152602001836003015481526020018360050180548060200260200160405190810160405280929190818152602001828054801561068957602002820191906000526020600020905b815481526020019060010190808311610675575b505050505081526020018360040160009054906101000a900460ff1660018111156106b7576106b6612c6d565b5b81525090508092505050919050565b60016020528060005260406000206000915054906101000a900460ff1681565b606060008084101561072d576040517f08c379a00000000000000000000000000000000000000000000000000000000081526004016107249061392b565b60405180910390fd5b60008311610770576040517f08c379a000000000000000000000000000000000000000000000000000000000815260040161076790613997565b60405180910390fd5b600060045467ffffffffffffffff81111561078e5761078d61320f565b5b6040519080825280602002602001820160405280156107bc5781602001602082028036833780820191505090505b509050600080600090505b600454811015610857576005600082815260200190815260200160002060080160009054906101000a900460ff1680156108165750600560008281526020019081526020016000206002015442105b1561084a578083838151811061082f5761082e6139b7565b5b602002602001018181525050818061084690613a15565b9250505b80806001019150506107c7565b5060005b818110156109755760006001826108729190613a5d565b90505b828110156109675760056000858381518110610894576108936139b7565b5b6020026020010151815260200190815260200160002060020154600560008685815181106108c5576108c46139b7565b5b6020026020010151815260200190815260200160002060020154111561095a578381815181106108f8576108f76139b7565b5b6020026020010151848381518110610913576109126139b7565b5b602002602001015185848151811061092e5761092d6139b7565b5b60200260200101868481518110610948576109476139b7565b5b60200260200101828152508281525050505b8080600101915050610875565b50808060010191505061085b565b50600085876109849190613a91565b90508181106109ef57600067ffffffffffffffff8111156109a8576109a761320f565b5b6040519080825280602002602001820160405280156109e157816020015b6109ce6129bc565b8152602001906001900390816109c65790505b508294509450505050610c7e565b60008287836109fe9190613a5d565b11610a14578682610a0f9190613a5d565b610a16565b825b90508181610a249190613ad3565b67ffffffffffffffff811115610a3d57610a3c61320f565b5b604051908082528060200260200182016040528015610a7657816020015b610a636129bc565b815260200190600190039081610a5b5790505b50955060005b8282610a889190613ad3565b811015610c75576000858285610a9e9190613a5d565b81518110610aaf57610aae6139b7565b5b602002602001015190506040518060c00160405280828152602001600560008481526020019081526020016000206001018054610aeb906138ae565b80601f0160208091040260200160405190810160405280929190818152602001828054610b17906138ae565b8015610b645780601f10610b3957610100808354040283529160200191610b64565b820191906000526020600020905b815481529060010190602001808311610b4757829003601f168201915b50505050508152602001600560008481526020019081526020016000206002015481526020016005600084815260200190815260200160002060030154815260200160056000848152602001908152602001600020600501805480602002602001604051908101604052809291908181526020018280548015610c0657602002820191906000526020600020905b815481526020019060010190808311610bf2575b505050505081526020016005600084815260200190815260200160002060040160009054906101000a900460ff166001811115610c4657610c45612c6d565b5b815250888381518110610c5c57610c5b6139b7565b5b6020026020010181905250508080600101915050610a7c565b50829450505050505b9250929050565b6060808383905067ffffffffffffffff811115610ca557610ca461320f565b5b604051908082528060200260200182016040528015610cd857816020015b6060815260200190600190039081610cc35790505b5091508383905067ffffffffffffffff811115610cf857610cf761320f565b5b604051908082528060200260200182016040528015610d2b57816020015b6060815260200190600190039081610d165790505b50905060005b84849050811015610e5f5760056000868684818110610d5357610d526139b7565b5b9050602002013581526020019081526020016000206001018054610d76906138ae565b80601f0160208091040260200160405190810160405280929190818152602001828054610da2906138ae565b8015610def5780601f10610dc457610100808354040283529160200191610def565b820191906000526020600020905b815481529060010190602001808311610dd257829003601f168201915b5050505050838281518110610e0757610e066139b7565b5b6020026020010181905250610e34858583818110610e2857610e276139b7565b5b90506020020135611a63565b828281518110610e4757610e466139b7565b5b60200260200101819052508080600101915050610d31565b509250929050565b60008054906101000a900473ffffffffffffffffffffffffffffffffffffffff1673ffffffffffffffffffffffffffffffffffffffff163373ffffffffffffffffffffffffffffffffffffffff1614610ef5576040517f08c379a0000000000000000000000000000000000000000000000000000000008152600401610eec906137f3565b60405180910390fd5b60018060008373ffffffffffffffffffffffffffffffffffffffff1673ffffffffffffffffffffffffffffffffffffffff16815260200190815260200160002060006101000a81548160ff02191690831515021790555050565b6060600080841015610f96576040517f08c379a0000000000000000000000000000000000000000000000000000000008152600401610f8d9061392b565b60405180910390fd5b60008311610fd9576040517f08c379a0000000000000000000000000000000000000000000000000000000008152600401610fd090613997565b60405180910390fd5b600060045467ffffffffffffffff811115610ff757610ff661320f565b5b6040519080825280602002602001820160405280156110255781602001602082028036833780820191505090505b509050600080600090505b6004548110156110e3576005600082815260200190815260200160002060080160009054906101000a900460ff168015611080575060056000828152602001908152602001600020600201544210155b80156110a2575060056000828152602001908152602001600020600301544211155b156110d657808383815181106110bb576110ba6139b7565b5b60200260200101818152505081806110d290613a15565b9250505b8080600101915050611030565b5060005b818110156112015760006001826110fe9190613a5d565b90505b828110156111f357600560008583815181106111205761111f6139b7565b5b602002602001015181526020019081526020016000206002015460056000868581518110611151576111506139b7565b5b602002602001015181526020019081526020016000206002015411156111e657838181518110611184576111836139b7565b5b602002602001015184838151811061119f5761119e6139b7565b5b60200260200101518584815181106111ba576111b96139b7565b5b602002602001018684815181106111d4576111d36139b7565b5b60200260200101828152508281525050505b8080600101915050611101565b5080806001019150506110e7565b50600085876112109190613a91565b905081811061127b57600067ffffffffffffffff8111156112345761123361320f565b5b60405190808252806020026020018201604052801561126d57816020015b61125a6129bc565b8152602001906001900390816112525790505b50829450945050505061150a565b600082878361128a9190613a5d565b116112a057868261129b9190613a5d565b6112a2565b825b905081816112b09190613ad3565b67ffffffffffffffff8111156112c9576112c861320f565b5b60405190808252806020026020018201604052801561130257816020015b6112ef6129bc565b8152602001906001900390816112e75790505b50955060005b82826113149190613ad3565b81101561150157600085828561132a9190613a5d565b8151811061133b5761133a6139b7565b5b602002602001015190506040518060c00160405280828152602001600560008481526020019081526020016000206001018054611377906138ae565b80601f01602080910402602001604051908101604052809291908181526020018280546113a3906138ae565b80156113f05780601f106113c5576101008083540402835291602001916113f0565b820191906000526020600020905b8154815290600101906020018083116113d357829003601f168201915b5050505050815260200160056000848152602001908152602001600020600201548152602001600560008481526020019081526020016000206003015481526020016005600084815260200190815260200160002060050180548060200260200160405190810160405280929190818152602001828054801561149257602002820191906000526020600020905b81548152602001906001019080831161147e575b505050505081526020016005600084815260200190815260200160002060040160009054906101000a900460ff1660018111156114d2576114d1612c6d565b5b8152508883815181106114e8576114e76139b7565b5b6020026020010181905250508080600101915050611308565b50829450505050505b9250929050565b600160003373ffffffffffffffffffffffffffffffffffffffff1673ffffffffffffffffffffffffffffffffffffffff16815260200190815260200160002060009054906101000a900460ff16806115b4575060008054906101000a900473ffffffffffffffffffffffffffffffffffffffff1673ffffffffffffffffffffffffffffffffffffffff163373ffffffffffffffffffffffffffffffffffffffff16145b6115f3576040517f08c379a00000000000000000000000000000000000000000000000000000000081526004016115ea90613b53565b60405180910390fd5b428411611635576040517f08c379a000000000000000000000000000000000000000000000000000000000815260040161162c90613bbf565b60405180910390fd5b838311611677576040517f08c379a000000000000000000000000000000000000000000000000000000000815260040161166e90613c2b565b60405180910390fd5b600060056000600454815260200190815260200160002090506004548160000181905550858160010190816116ac9190613df7565b50848160020181905550838160030181905550828160040160006101000a81548160ff021916908360018111156116e6576116e5612c6d565b5b021790555060018160080160006101000a81548160ff0219169083151502179055506004600081548092919061171b90613a15565b919050555060005b825181101561177e5781600501838281518110611743576117426139b7565b5b602002602001015190806001815401808255809150506001900390600052602060002001600090919091909150558080600101915050611723565b506004547fca8aa543d351c1c4996be153127dbdcc10410245e7ee62094ce236d48ec38df487856040516117b3929190613ec9565b60405180910390a2505050505050565b600160003373ffffffffffffffffffffffffffffffffffffffff1673ffffffffffffffffffffffffffffffffffffffff16815260200190815260200160002060009054906101000a900460ff1680611866575060008054906101000a900473ffffffffffffffffffffffffffffffffffffffff1673ffffffffffffffffffffffffffffffffffffffff163373ffffffffffffffffffffffffffffffffffffffff16145b6118a5576040517f08c379a000000000000000000000000000000000000000000000000000000000815260040161189c90613b53565b60405180910390fd5b6000600260008373ffffffffffffffffffffffffffffffffffffffff1673ffffffffffffffffffffffffffffffffffffffff16815260200190815260200160002060006101000a81548160ff02191690831515021790555050565b60008054906101000a900473ffffffffffffffffffffffffffffffffffffffff1681565b606060006005600084815260200190815260200160002090508060080160009054906101000a900460ff16611991576040518060400160405280600981526020017f4e6f742045786973740000000000000000000000000000000000000000000000815250915050611a5e565b80600201544210156119db576040518060400160405280600781526020017f50656e64696e6700000000000000000000000000000000000000000000000000815250915050611a5e565b80600301544211611a24576040518060400160405280600681526020017f4163746976650000000000000000000000000000000000000000000000000000815250915050611a5e565b6040518060400160405280600981526020017f436f6d706c6574656400000000000000000000000000000000000000000000008152509150505b919050565b606060006005600084815260200190815260200160002090508060080160009054906101000a900460ff16611acd576040517f08c379a0000000000000000000000000000000000000000000000000000000008152600401611ac49061385f565b60405180910390fd5b60008160050180549050905060008167ffffffffffffffff811115611af557611af461320f565b5b604051908082528060200260200182016040528015611b235781602001602082028036833780820191505090505b50905060005b82811015611b7e57836005018181548110611b4757611b466139b7565b5b9060005260206000200154828281518110611b6557611b646139b7565b5b6020026020010181815250508080600101915050611b29565b50809350505050919050565b60026020528060005260406000206000915054906101000a900460ff1681565b6005602052806000526040600020600091509050806000015490806001018054611bd3906138ae565b80601f0160208091040260200160405190810160405280929190818152602001828054611bff906138ae565b8015611c4c5780601f10611c2157610100808354040283529160200191611c4c565b820191906000526020600020905b815481529060010190602001808311611c2f57829003601f168201915b5050505050908060020154908060030154908060040160009054906101000a900460ff16908060080160009054906101000a900460ff16905086565b6060600080841015611ccf576040517f08c379a0000000000000000000000000000000000000000000000000000000008152600401611cc69061392b565b60405180910390fd5b60008311611d12576040517f08c379a0000000000000000000000000000000000000000000000000000000008152600401611d0990613997565b60405180910390fd5b600060045467ffffffffffffffff811115611d3057611d2f61320f565b5b604051908082528060200260200182016040528015611d5e5781602001602082028036833780820191505090505b509050600080600090505b600454811015611df9576005600082815260200190815260200160002060080160009054906101000a900460ff168015611db85750600560008281526020019081526020016000206003015442115b15611dec5780838381518110611dd157611dd06139b7565b5b6020026020010181815250508180611de890613a15565b9250505b8080600101915050611d69565b5060005b81811015611f17576000600182611e149190613a5d565b90505b82811015611f095760056000858381518110611e3657611e356139b7565b5b602002602001015181526020019081526020016000206003015460056000868581518110611e6757611e666139b7565b5b60200260200101518152602001908152602001600020600301541015611efc57838181518110611e9a57611e996139b7565b5b6020026020010151848381518110611eb557611eb46139b7565b5b6020026020010151858481518110611ed057611ecf6139b7565b5b60200260200101868481518110611eea57611ee96139b7565b5b60200260200101828152508281525050505b8080600101915050611e17565b508080600101915050611dfd565b5060008587611f269190613a91565b9050818110611f9157600067ffffffffffffffff811115611f4a57611f4961320f565b5b604051908082528060200260200182016040528015611f8357816020015b611f706129bc565b815260200190600190039081611f685790505b508294509450505050612220565b6000828783611fa09190613a5d565b11611fb6578682611fb19190613a5d565b611fb8565b825b90508181611fc69190613ad3565b67ffffffffffffffff811115611fdf57611fde61320f565b5b60405190808252806020026020018201604052801561201857816020015b6120056129bc565b815260200190600190039081611ffd5790505b50955060005b828261202a9190613ad3565b8110156122175760008582856120409190613a5d565b81518110612051576120506139b7565b5b602002602001015190506040518060c0016040528082815260200160056000848152602001908152602001600020600101805461208d906138ae565b80601f01602080910402602001604051908101604052809291908181526020018280546120b9906138ae565b80156121065780601f106120db57610100808354040283529160200191612106565b820191906000526020600020905b8154815290600101906020018083116120e957829003601f168201915b505050505081526020016005600084815260200190815260200160002060020154815260200160056000848152602001908152602001600020600301548152602001600560008481526020019081526020016000206005018054806020026020016040519081016040528092919081815260200182805480156121a857602002820191906000526020600020905b815481526020019060010190808311612194575b505050505081526020016005600084815260200190815260200160002060040160009054906101000a900460ff1660018111156121e8576121e7612c6d565b5b8152508883815181106121fe576121fd6139b7565b5b602002602001018190525050808060010191505061201e565b50829450505050505b9250929050565b600260003373ffffffffffffffffffffffffffffffffffffffff1673ffffffffffffffffffffffffffffffffffffffff16815260200190815260200160002060009054906101000a900460ff166122b3576040517f08c379a00000000000000000000000000000000000000000000000000000000081526004016122aa90613f45565b60405180910390fd5b60006005600084815260200190815260200160002090508060080160009054906101000a900460ff1661231b576040517f08c379a000000000000000000000000000000000000000000000000000000000815260040161231290613fb1565b60405180910390fd5b80600201544210156123805760004282600201546123399190613ad3565b9050816002015442826040517fb50c604c00000000000000000000000000000000000000000000000000000000815260040161237793929190613fd1565b60405180910390fd5b80600201544210156123c7576040517f08c379a00000000000000000000000000000000000000000000000000000000081526004016123be90614054565b60405180910390fd5b806003015442111561240e576040517f08c379a0000000000000000000000000000000000000000000000000000000008152600401612405906140c0565b60405180910390fd5b8060060160003373ffffffffffffffffffffffffffffffffffffffff1673ffffffffffffffffffffffffffffffffffffffff16815260200190815260200160002060009054906101000a900460ff161561249d576040517f08c379a00000000000000000000000000000000000000000000000000000000081526004016124949061412c565b60405180910390fd5b806005018054905082106124e6576040517f08c379a00000000000000000000000000000000000000000000000000000000081526004016124dd90614198565b60405180910390fd5b60018160060160003373ffffffffffffffffffffffffffffffffffffffff1673ffffffffffffffffffffffffffffffffffffffff16815260200190815260200160002060006101000a81548160ff021916908315150217905550818160070160003373ffffffffffffffffffffffffffffffffffffffff1673ffffffffffffffffffffffffffffffffffffffff16815260200190815260200160002081905550823373ffffffffffffffffffffffffffffffffffffffff167fb4cfecf70861b7b150d8337780d34fb4cbc2114b5fb1fe51a5c5fca1849f7274846040516125cd919061369f565b60405180910390a3505050565b60045481565b600080606060006005600086815260200190815260200160002090508060080160009054906101000a900460ff1661264d576040517f08c379a00000000000000000000000000000000000000000000000000000000081526004016126449061385f565b60405180910390fd5b6001808111156126605761265f612c6d565b5b8160040160009054906101000a900460ff16600181111561268457612683612c6d565b5b0361272357806003015442116126cf576040517f08c379a00000000000000000000000000000000000000000000000000000000081526004016126c69061422a565b60405180910390fd5b610e1081600301546126e19190613a5d565b4211612722576040517f08c379a0000000000000000000000000000000000000000000000000000000008152600401612719906142bc565b60405180910390fd5b5b6000600360008781526020019081526020016000209050816005018054905067ffffffffffffffff81111561275b5761275a61320f565b5b6040519080825280602002602001820160405280156127895781602001602082028036833780820191505090505b50925060005b83518110156127da57816002016000828152602001908152602001600020548482815181106127c1576127c06139b7565b5b602002602001018181525050808060010191505061278f565b50806000015481600101549450945050509193909250565b600160003373ffffffffffffffffffffffffffffffffffffffff1673ffffffffffffffffffffffffffffffffffffffff16815260200190815260200160002060009054906101000a900460ff1680612895575060008054906101000a900473ffffffffffffffffffffffffffffffffffffffff1673ffffffffffffffffffffffffffffffffffffffff163373ffffffffffffffffffffffffffffffffffffffff16145b6128d4576040517f08c379a00000000000000000000000000000000000000000000000000000000081526004016128cb90613b53565b60405180910390fd5b600260008273ffffffffffffffffffffffffffffffffffffffff1673ffffffffffffffffffffffffffffffffffffffff16815260200190815260200160002060009054906101000a900460ff1615612961576040517f08c379a000000000000000000000000000000000000000000000000000000000815260040161295890614328565b60405180910390fd5b6001600260008373ffffffffffffffffffffffffffffffffffffffff1673ffffffffffffffffffffffffffffffffffffffff16815260200190815260200160002060006101000a81548160ff02191690831515021790555050565b6040518060c001604052806000815260200160608152602001600081526020016000815260200160608152602001600060018111156129fe576129fd612c6d565b5b81525090565b6000604051905090565b600080fd5b600080fd5b600073ffffffffffffffffffffffffffffffffffffffff82169050919050565b6000612a4382612a18565b9050919050565b612a5381612a38565b8114612a5e57600080fd5b50565b600081359050612a7081612a4a565b92915050565b600060208284031215612a8c57612a8b612a0e565b5b6000612a9a84828501612a61565b91505092915050565b6000819050919050565b612ab681612aa3565b8114612ac157600080fd5b50565b600081359050612ad381612aad565b92915050565b600060208284031215612aef57612aee612a0e565b5b6000612afd84828501612ac4565b91505092915050565b612b0f81612aa3565b82525050565b600081519050919050565b600082825260208201905092915050565b60005b83811015612b4f578082015181840152602081019050612b34565b60008484015250505050565b6000601f19601f8301169050919050565b6000612b7782612b15565b612b818185612b20565b9350612b91818560208601612b31565b612b9a81612b5b565b840191505092915050565b600081519050919050565b600082825260208201905092915050565b6000819050602082019050919050565b6000819050919050565b612be481612bd1565b82525050565b6000612bf68383612bdb565b60208301905092915050565b6000602082019050919050565b6000612c1a82612ba5565b612c248185612bb0565b9350612c2f83612bc1565b8060005b83811015612c60578151612c478882612bea565b9750612c5283612c02565b925050600181019050612c33565b5085935050505092915050565b7f4e487b7100000000000000000000000000000000000000000000000000000000600052602160045260246000fd5b60028110612cad57612cac612c6d565b5b50565b6000819050612cbe82612c9c565b919050565b6000612cce82612cb0565b9050919050565b612cde81612cc3565b82525050565b600060c083016000830151612cfc6000860182612b06565b5060208301518482036020860152612d148282612b6c565b9150506040830151612d296040860182612b06565b506060830151612d3c6060860182612b06565b5060808301518482036080860152612d548282612c0f565b91505060a0830151612d6960a0860182612cd5565b508091505092915050565b60006020820190508181036000830152612d8e8184612ce4565b905092915050565b60008115159050919050565b612dab81612d96565b82525050565b6000602082019050612dc66000830184612da2565b92915050565b60008060408385031215612de357612de2612a0e565b5b6000612df185828601612ac4565b9250506020612e0285828601612ac4565b9150509250929050565b600081519050919050565b600082825260208201905092915050565b6000819050602082019050919050565b600060c083016000830151612e506000860182612b06565b5060208301518482036020860152612e688282612b6c565b9150506040830151612e7d6040860182612b06565b506060830151612e906060860182612b06565b5060808301518482036080860152612ea88282612c0f565b91505060a0830151612ebd60a0860182612cd5565b508091505092915050565b6000612ed48383612e38565b905092915050565b6000602082019050919050565b6000612ef482612e0c565b612efe8185612e17565b935083602082028501612f1085612e28565b8060005b85811015612f4c5784840389528151612f2d8582612ec8565b9450612f3883612edc565b925060208a01995050600181019050612f14565b50829750879550505050505092915050565b612f6781612aa3565b82525050565b60006040820190508181036000830152612f878185612ee9565b9050612f966020830184612f5e565b9392505050565b600080fd5b600080fd5b600080fd5b60008083601f840112612fc257612fc1612f9d565b5b8235905067ffffffffffffffff811115612fdf57612fde612fa2565b5b602083019150836020820283011115612ffb57612ffa612fa7565b5b9250929050565b6000806020838503121561301957613018612a0e565b5b600083013567ffffffffffffffff81111561303757613036612a13565b5b61304385828601612fac565b92509250509250929050565b600081519050919050565b600082825260208201905092915050565b6000819050602082019050919050565b60006130878383612b6c565b905092915050565b6000602082019050919050565b60006130a78261304f565b6130b1818561305a565b9350836020820285016130c38561306b565b8060005b858110156130ff57848403895281516130e0858261307b565b94506130eb8361308f565b925060208a019950506001810190506130c7565b50829750879550505050505092915050565b600081519050919050565b600082825260208201905092915050565b6000819050602082019050919050565b60006131498383612c0f565b905092915050565b6000602082019050919050565b600061316982613111565b613173818561311c565b9350836020820285016131858561312d565b8060005b858110156131c157848403895281516131a2858261313d565b94506131ad83613151565b925060208a01995050600181019050613189565b50829750879550505050505092915050565b600060408201905081810360008301526131ed818561309c565b90508181036020830152613201818461315e565b90509392505050565b600080fd5b7f4e487b7100000000000000000000000000000000000000000000000000000000600052604160045260246000fd5b61324782612b5b565b810181811067ffffffffffffffff821117156132665761326561320f565b5b80604052505050565b6000613279612a04565b9050613285828261323e565b919050565b600067ffffffffffffffff8211156132a5576132a461320f565b5b6132ae82612b5b565b9050602081019050919050565b82818337600083830152505050565b60006132dd6132d88461328a565b61326f565b9050828152602081018484840111156132f9576132f861320a565b5b6133048482856132bb565b509392505050565b600082601f83011261332157613320612f9d565b5b81356133318482602086016132ca565b91505092915050565b6002811061334757600080fd5b50565b6000813590506133598161333a565b92915050565b600067ffffffffffffffff82111561337a5761337961320f565b5b602082029050602081019050919050565b61339481612bd1565b811461339f57600080fd5b50565b6000813590506133b18161338b565b92915050565b60006133ca6133c58461335f565b61326f565b905080838252602082019050602084028301858111156133ed576133ec612fa7565b5b835b81811015613416578061340288826133a2565b8452602084019350506020810190506133ef565b5050509392505050565b600082601f83011261343557613434612f9d565b5b81356134458482602086016133b7565b91505092915050565b600080600080600060a0868803121561346a57613469612a0e565b5b600086013567ffffffffffffffff81111561348857613487612a13565b5b6134948882890161330c565b95505060206134a588828901612ac4565b94505060406134b688828901612ac4565b93505060606134c78882890161334a565b925050608086013567ffffffffffffffff8111156134e8576134e7612a13565b5b6134f488828901613420565b9150509295509295909350565b61350a81612a38565b82525050565b60006020820190506135256000830184613501565b92915050565b600082825260208201905092915050565b600061354782612b15565b613551818561352b565b9350613561818560208601612b31565b61356a81612b5b565b840191505092915050565b6000602082019050818103600083015261358f818461353c565b905092915050565b600082825260208201905092915050565b60006135b382612ba5565b6135bd8185613597565b93506135c883612bc1565b8060005b838110156135f95781516135e08882612bea565b97506135eb83612c02565b9250506001810190506135cc565b5085935050505092915050565b6000602082019050818103600083015261362081846135a8565b905092915050565b61363181612cc3565b82525050565b600060c08201905061364c6000830189612f5e565b818103602083015261365e818861353c565b905061366d6040830187612f5e565b61367a6060830186612f5e565b6136876080830185613628565b61369460a0830184612da2565b979650505050505050565b60006020820190506136b46000830184612f5e565b92915050565b600081519050919050565b600082825260208201905092915050565b6000819050602082019050919050565b60006136f28383612b06565b60208301905092915050565b6000602082019050919050565b6000613716826136ba565b61372081856136c5565b935061372b836136d6565b8060005b8381101561375c57815161374388826136e6565b975061374e836136fe565b92505060018101905061372f565b5085935050505092915050565b600060608201905061377e6000830186612f5e565b61378b6020830185612f5e565b818103604083015261379d818461370b565b9050949350505050565b7f4e6f742063686169726d616e0000000000000000000000000000000000000000600082015250565b60006137dd600c8361352b565b91506137e8826137a7565b602082019050919050565b6000602082019050818103600083015261380c816137d0565b9050919050565b7f566f74696e6720646f6573206e6f742065786973740000000000000000000000600082015250565b600061384960158361352b565b915061385482613813565b602082019050919050565b600060208201905081810360008301526138788161383c565b9050919050565b7f4e487b7100000000000000000000000000000000000000000000000000000000600052602260045260246000fd5b600060028204905060018216806138c657607f821691505b6020821081036138d9576138d861387f565b5b50919050565b7f50616765206d757374206265206174206c656173742030000000000000000000600082015250565b600061391560178361352b565b9150613920826138df565b602082019050919050565b6000602082019050818103600083015261394481613908565b9050919050565b7f70657250616765206d757374206265206174206c656173742031000000000000600082015250565b6000613981601a8361352b565b915061398c8261394b565b602082019050919050565b600060208201905081810360008301526139b081613974565b9050919050565b7f4e487b7100000000000000000000000000000000000000000000000000000000600052603260045260246000fd5b7f4e487b7100000000000000000000000000000000000000000000000000000000600052601160045260246000fd5b6000613a2082612aa3565b91507fffffffffffffffffffffffffffffffffffffffffffffffffffffffffffffffff8203613a5257613a516139e6565b5b600182019050919050565b6000613a6882612aa3565b9150613a7383612aa3565b9250828201905080821115613a8b57613a8a6139e6565b5b92915050565b6000613a9c82612aa3565b9150613aa783612aa3565b9250828202613ab581612aa3565b91508282048414831517613acc57613acb6139e6565b5b5092915050565b6000613ade82612aa3565b9150613ae983612aa3565b9250828203905081811115613b0157613b006139e6565b5b92915050565b7f4e6f742061646d696e0000000000000000000000000000000000000000000000600082015250565b6000613b3d60098361352b565b9150613b4882613b07565b602082019050919050565b60006020820190508181036000830152613b6c81613b30565b9050919050565b7f496e76616c69642073746172742074696d650000000000000000000000000000600082015250565b6000613ba960128361352b565b9150613bb482613b73565b602082019050919050565b60006020820190508181036000830152613bd881613b9c565b9050919050565b7f496e76616c696420656e642074696d6500000000000000000000000000000000600082015250565b6000613c1560108361352b565b9150613c2082613bdf565b602082019050919050565b60006020820190508181036000830152613c4481613c08565b9050919050565b60008190508160005260206000209050919050565b60006020601f8301049050919050565b600082821b905092915050565b600060088302613cad7fffffffffffffffffffffffffffffffffffffffffffffffffffffffffffffffff82613c70565b613cb78683613c70565b95508019841693508086168417925050509392505050565b6000819050919050565b6000613cf4613cef613cea84612aa3565b613ccf565b612aa3565b9050919050565b6000819050919050565b613d0e83613cd9565b613d22613d1a82613cfb565b848454613c7d565b825550505050565b600090565b613d37613d2a565b613d42818484613d05565b505050565b5b81811015613d6657613d5b600082613d2f565b600181019050613d48565b5050565b601f821115613dab57613d7c81613c4b565b613d8584613c60565b81016020851015613d94578190505b613da8613da085613c60565b830182613d47565b50505b505050565b600082821c905092915050565b6000613dce60001984600802613db0565b1980831691505092915050565b6000613de78383613dbd565b9150826002028217905092915050565b613e0082612b15565b67ffffffffffffffff811115613e1957613e1861320f565b5b613e2382546138ae565b613e2e828285613d6a565b600060209050601f831160018114613e615760008415613e4f578287015190505b613e598582613ddb565b865550613ec1565b601f198416613e6f86613c4b565b60005b82811015613e9757848901518255600182019150602085019450602081019050613e72565b86831015613eb45784890151613eb0601f891682613dbd565b8355505b6001600288020188555050505b505050505050565b60006040820190508181036000830152613ee3818561353c565b9050613ef26020830184613628565b9392505050565b7f4e6f7420617574686f72697a6564000000000000000000000000000000000000600082015250565b6000613f2f600e8361352b565b9150613f3a82613ef9565b602082019050919050565b60006020820190508181036000830152613f5e81613f22565b9050919050565b7f496e76616c696420766f74696e67000000000000000000000000000000000000600082015250565b6000613f9b600e8361352b565b9150613fa682613f65565b602082019050919050565b60006020820190508181036000830152613fca81613f8e565b9050919050565b6000606082019050613fe66000830186612f5e565b613ff36020830185612f5e565b6140006040830184612f5e565b949350505050565b7f566f74696e67206e6f7420737461727465640000000000000000000000000000600082015250565b600061403e60128361352b565b915061404982614008565b602082019050919050565b6000602082019050818103600083015261406d81614031565b9050919050565b7f566f74696e6720656e6465640000000000000000000000000000000000000000600082015250565b60006140aa600c8361352b565b91506140b582614074565b602082019050919050565b600060208201905081810360008301526140d98161409d565b9050919050565b7f416c726561647920766f74656400000000000000000000000000000000000000600082015250565b6000614116600d8361352b565b9150614121826140e0565b602082019050919050565b6000602082019050818103600083015261414581614109565b9050919050565b7f496e76616c69642070726f706f736974696f6e00000000000000000000000000600082015250565b600061418260138361352b565b915061418d8261414c565b602082019050919050565b600060208201905081810360008301526141b181614175565b9050919050565b7f5072697661746520766f74696e6720696e2070726f67726573732e205265737560008201527f6c747320617661696c61626c6520616674657220636f6d706c6574696f6e0000602082015250565b6000614214603e8361352b565b915061421f826141b8565b604082019050919050565b6000602082019050818103600083015261424381614207565b9050919050565b7f526573756c747320756e646572676f696e672066696e616c207665726966696360008201527f6174696f6e000000000000000000000000000000000000000000000000000000602082015250565b60006142a660258361352b565b91506142b18261424a565b604082019050919050565b600060208201905081810360008301526142d581614299565b9050919050565b7f566f74657220616c726561647920657869737473000000000000000000000000600082015250565b600061431260148361352b565b915061431d826142dc565b602082019050919050565b6000602082019050818103600083015261434181614305565b905091905056fea264697066735822122001de44f19df46411604448afe440e5107c9ed374d495499720ce2a4bbf0614fe64736f6c634300081c0033",
  "linkReferences": {},
  "deployedLinkReferences": {}
}